{
  "contractName": "InstrumentFactoryWithToken",
  "abi": [
    {
      "constant": true,
      "inputs": [],
      "name": "issuer",
      "outputs": [
        {
          "name": "",
          "type": "address"
        }
      ],
      "payable": false,
      "stateMutability": "view",
      "type": "function"
    },
    {
      "constant": false,
      "inputs": [],
      "name": "accept",
      "outputs": [],
      "payable": true,
      "stateMutability": "payable",
      "type": "function"
    },
    {
      "constant": false,
      "inputs": [
        {
          "name": "_issuer",
          "type": "address"
        }
      ],
      "name": "setIssuer",
      "outputs": [],
      "payable": false,
      "stateMutability": "nonpayable",
      "type": "function"
    },
    {
      "constant": true,
      "inputs": [],
      "name": "amountPaymentRequired",
      "outputs": [
        {
          "name": "",
          "type": "uint256"
        }
      ],
      "payable": false,
      "stateMutability": "view",
      "type": "function"
    },
    {
      "constant": true,
      "inputs": [],
      "name": "contentHash",
      "outputs": [
        {
          "name": "",
          "type": "bytes32"
        }
      ],
      "payable": false,
      "stateMutability": "view",
      "type": "function"
    },
    {
      "constant": true,
      "inputs": [],
      "name": "instrumentContentHash",
      "outputs": [
        {
          "name": "",
          "type": "bytes32"
        }
      ],
      "payable": false,
      "stateMutability": "view",
      "type": "function"
    },
    {
      "constant": false,
      "inputs": [
        {
          "name": "_holder",
          "type": "address"
        }
      ],
      "name": "setHolder",
      "outputs": [],
      "payable": false,
      "stateMutability": "nonpayable",
      "type": "function"
    },
    {
      "constant": true,
      "inputs": [],
      "name": "holder",
      "outputs": [
        {
          "name": "",
          "type": "address"
        }
      ],
      "payable": false,
      "stateMutability": "view",
      "type": "function"
    },
    {
      "constant": false,
      "inputs": [
        {
          "name": "_withdrawAddress",
          "type": "address"
        },
        {
          "name": "_value",
          "type": "uint256"
        }
      ],
      "name": "withdraw",
      "outputs": [],
      "payable": false,
      "stateMutability": "nonpayable",
      "type": "function"
    },
    {
      "constant": true,
      "inputs": [],
      "name": "token",
      "outputs": [
        {
          "name": "",
          "type": "address"
        }
      ],
      "payable": false,
      "stateMutability": "view",
      "type": "function"
    },
    {
      "inputs": [
        {
          "name": "_issuer",
          "type": "address"
        },
        {
          "name": "_contentHash",
          "type": "bytes32"
        },
        {
          "name": "_instrumentContentHash",
          "type": "bytes32"
        },
        {
          "name": "_amountPaymentRequired",
          "type": "uint256"
        },
        {
          "name": "_token",
          "type": "address"
        }
      ],
      "payable": false,
      "stateMutability": "nonpayable",
      "type": "constructor"
    },
    {
      "anonymous": false,
      "inputs": [
        {
          "indexed": true,
          "name": "issuer",
          "type": "address"
        },
        {
          "indexed": true,
          "name": "holder",
          "type": "address"
        },
        {
          "indexed": true,
          "name": "instrument",
          "type": "address"
        },
        {
          "indexed": false,
          "name": "contentHash",
          "type": "bytes32"
        }
      ],
      "name": "InstrumentCreated",
      "type": "event"
    }
  ],
  "bytecode": "0x6060604052341561000f57600080fd5b60405160a080610e7083398101604052808051906020019091908051906020019091908051906020019091908051906020019091908051906020019091905050848585826000806101000a81548173ffffffffffffffffffffffffffffffffffffffff021916908373ffffffffffffffffffffffffffffffffffffffff16021790555081600160006101000a81548173ffffffffffffffffffffffffffffffffffffffff021916908373ffffffffffffffffffffffffffffffffffffffff160217905550806002816000191690555050505081600381905550826004816000191690555080600560006101000a81548173ffffffffffffffffffffffffffffffffffffffff021916908373ffffffffffffffffffffffffffffffffffffffff1602179055505050505050610d28806101486000396000f3006060604052600436106100a4576000357c0100000000000000000000000000000000000000000000000000000000900463ffffffff1680631d143848146100a95780632852b71c146100fe57806355cc4e57146101085780635bd1167714610141578063646c2e331461016a5780638d4577711461019b578063d979f5aa146101cc578063e534155d14610205578063f3fef3a31461025a578063fc0c546a1461029c575b600080fd5b34156100b457600080fd5b6100bc6102f1565b604051808273ffffffffffffffffffffffffffffffffffffffff1673ffffffffffffffffffffffffffffffffffffffff16815260200191505060405180910390f35b610106610316565b005b341561011357600080fd5b61013f600480803573ffffffffffffffffffffffffffffffffffffffff169060200190919050506105a9565b005b341561014c57600080fd5b610154610647565b6040518082815260200191505060405180910390f35b341561017557600080fd5b61017d61064d565b60405180826000191660001916815260200191505060405180910390f35b34156101a657600080fd5b6101ae610653565b60405180826000191660001916815260200191505060405180910390f35b34156101d757600080fd5b610203600480803573ffffffffffffffffffffffffffffffffffffffff16906020019091905050610659565b005b341561021057600080fd5b6102186106f9565b604051808273ffffffffffffffffffffffffffffffffffffffff1673ffffffffffffffffffffffffffffffffffffffff16815260200191505060405180910390f35b341561026557600080fd5b61029a600480803573ffffffffffffffffffffffffffffffffffffffff1690602001909190803590602001909190505061071f565b005b34156102a757600080fd5b6102af610871565b604051808273ffffffffffffffffffffffffffffffffffffffff1673ffffffffffffffffffffffffffffffffffffffff16815260200191505060405180910390f35b6000809054906101000a900473ffffffffffffffffffffffffffffffffffffffff1681565b6000600560009054906101000a900473ffffffffffffffffffffffffffffffffffffffff1673ffffffffffffffffffffffffffffffffffffffff166323b872dd33306003546000604051602001526040518463ffffffff167c0100000000000000000000000000000000000000000000000000000000028152600401808473ffffffffffffffffffffffffffffffffffffffff1673ffffffffffffffffffffffffffffffffffffffff1681526020018373ffffffffffffffffffffffffffffffffffffffff1673ffffffffffffffffffffffffffffffffffffffff1681526020018281526020019350505050602060405180830381600087803b151561041b57600080fd5b6102c65a03f1151561042c57600080fd5b50505060405180519050151561044157600080fd5b6000809054906101000a900473ffffffffffffffffffffffffffffffffffffffff163360045461046f610897565b808473ffffffffffffffffffffffffffffffffffffffff1673ffffffffffffffffffffffffffffffffffffffff1681526020018373ffffffffffffffffffffffffffffffffffffffff1673ffffffffffffffffffffffffffffffffffffffff16815260200182600019166000191681526020019350505050604051809103906000f08015156104fd57600080fd5b90508073ffffffffffffffffffffffffffffffffffffffff163373ffffffffffffffffffffffffffffffffffffffff166000809054906101000a900473ffffffffffffffffffffffffffffffffffffffff1673ffffffffffffffffffffffffffffffffffffffff167f6fda10d37695937bde3fd472914ad3042c6259b57f8edbdb6047e4fce887194b60045460405180826000191660001916815260200191505060405180910390a450565b3373ffffffffffffffffffffffffffffffffffffffff166000809054906101000a900473ffffffffffffffffffffffffffffffffffffffff1673ffffffffffffffffffffffffffffffffffffffff1614151561060457600080fd5b806000806101000a81548173ffffffffffffffffffffffffffffffffffffffff021916908373ffffffffffffffffffffffffffffffffffffffff16021790555050565b60035481565b60025481565b60045481565b3373ffffffffffffffffffffffffffffffffffffffff16600160009054906101000a900473ffffffffffffffffffffffffffffffffffffffff1673ffffffffffffffffffffffffffffffffffffffff161415156106b557600080fd5b80600160006101000a81548173ffffffffffffffffffffffffffffffffffffffff021916908373ffffffffffffffffffffffffffffffffffffffff16021790555050565b600160009054906101000a900473ffffffffffffffffffffffffffffffffffffffff1681565b3373ffffffffffffffffffffffffffffffffffffffff166000809054906101000a900473ffffffffffffffffffffffffffffffffffffffff1673ffffffffffffffffffffffffffffffffffffffff1614151561077a57600080fd5b600560009054906101000a900473ffffffffffffffffffffffffffffffffffffffff1673ffffffffffffffffffffffffffffffffffffffff1663a9059cbb83836000604051602001526040518363ffffffff167c0100000000000000000000000000000000000000000000000000000000028152600401808373ffffffffffffffffffffffffffffffffffffffff1673ffffffffffffffffffffffffffffffffffffffff16815260200182815260200192505050602060405180830381600087803b151561084757600080fd5b6102c65a03f1151561085857600080fd5b50505060405180519050151561086d57600080fd5b5050565b600560009054906101000a900473ffffffffffffffffffffffffffffffffffffffff1681565b604051610455806108a88339019056006060604052341561000f57600080fd5b60405160608061045583398101604052808051906020019091908051906020019091908051906020019091905050826000806101000a81548173ffffffffffffffffffffffffffffffffffffffff021916908373ffffffffffffffffffffffffffffffffffffffff16021790555081600160006101000a81548173ffffffffffffffffffffffffffffffffffffffff021916908373ffffffffffffffffffffffffffffffffffffffff160217905550806002816000191690555050505061037a806100db6000396000f30060606040526004361061006d576000357c0100000000000000000000000000000000000000000000000000000000900463ffffffff1680631d1438481461007257806355cc4e57146100c7578063646c2e3314610100578063d979f5aa14610131578063e534155d1461016a575b600080fd5b341561007d57600080fd5b6100856101bf565b604051808273ffffffffffffffffffffffffffffffffffffffff1673ffffffffffffffffffffffffffffffffffffffff16815260200191505060405180910390f35b34156100d257600080fd5b6100fe600480803573ffffffffffffffffffffffffffffffffffffffff169060200190919050506101e4565b005b341561010b57600080fd5b610113610282565b60405180826000191660001916815260200191505060405180910390f35b341561013c57600080fd5b610168600480803573ffffffffffffffffffffffffffffffffffffffff16906020019091905050610288565b005b341561017557600080fd5b61017d610328565b604051808273ffffffffffffffffffffffffffffffffffffffff1673ffffffffffffffffffffffffffffffffffffffff16815260200191505060405180910390f35b6000809054906101000a900473ffffffffffffffffffffffffffffffffffffffff1681565b3373ffffffffffffffffffffffffffffffffffffffff166000809054906101000a900473ffffffffffffffffffffffffffffffffffffffff1673ffffffffffffffffffffffffffffffffffffffff1614151561023f57600080fd5b806000806101000a81548173ffffffffffffffffffffffffffffffffffffffff021916908373ffffffffffffffffffffffffffffffffffffffff16021790555050565b60025481565b3373ffffffffffffffffffffffffffffffffffffffff16600160009054906101000a900473ffffffffffffffffffffffffffffffffffffffff1673ffffffffffffffffffffffffffffffffffffffff161415156102e457600080fd5b80600160006101000a81548173ffffffffffffffffffffffffffffffffffffffff021916908373ffffffffffffffffffffffffffffffffffffffff16021790555050565b600160009054906101000a900473ffffffffffffffffffffffffffffffffffffffff16815600a165627a7a72305820bde91e6354f8884b45618dd9398b3c5ef4400589406e6db1ad8af0cf8a62478d0029a165627a7a72305820bfff08f8df9151c7591b2c0e7569a2926ec537acc1b091ed832a4f6ed95964a10029",
  "source": "pragma solidity ^0.4.18;\n\nimport { StandardToken } from 'zeppelin-solidity/contracts/token/ERC20/StandardToken.sol';\nimport { Instrument } from './Instrument.sol';\n\ncontract InstrumentFactoryWithToken is Instrument {\n  uint256 public amountPaymentRequired; // amount in wei\n  bytes32 public instrumentContentHash;\n  StandardToken public token;\n\n  function InstrumentFactoryWithToken(address _issuer, bytes32 _contentHash, bytes32 _instrumentContentHash, uint256 _amountPaymentRequired, address _token) Instrument(_issuer, _issuer,  _contentHash) public {\n    amountPaymentRequired = _amountPaymentRequired;\n    instrumentContentHash = _instrumentContentHash;\n    token = StandardToken(_token);\n  }\n\n  function withdraw(address _withdrawAddress, uint256 _value) onlyIssuer public {\n    require(token.transfer(_withdrawAddress, _value));\n  }\n\n  function accept() public payable {\n    // the acceptor, msg.sender, must have already `approve`d the transfer amount for this contract.\n    require(token.transferFrom(msg.sender, this, amountPaymentRequired));\n\n    address instrument = new Instrument(issuer, msg.sender, instrumentContentHash);\n    InstrumentCreated(issuer, msg.sender, instrument, instrumentContentHash);\n  }\n}\n",
  "sourcePath": "/Users/ras/src/aikon/protocol/contracts/InstrumentFactoryWithToken.sol",
  "compiler": {
    "name": "solc",
    "version": "0.4.18+commit.9cf6e910.Emscripten.clang"
  },
  "schemaVersion": "1.0.1",
  "updatedAt": "2018-03-16T03:54:08.867Z"
}