{
  "contractName": "Instrument",
  "abi": [
    {
      "constant": true,
      "inputs": [],
      "name": "issuer",
      "outputs": [
        {
          "name": "",
          "type": "address"
        }
      ],
      "payable": false,
      "stateMutability": "view",
      "type": "function"
    },
    {
      "constant": false,
      "inputs": [
        {
          "name": "_issuer",
          "type": "address"
        }
      ],
      "name": "setIssuer",
      "outputs": [],
      "payable": false,
      "stateMutability": "nonpayable",
      "type": "function"
    },
    {
      "constant": true,
      "inputs": [],
      "name": "contentHash",
      "outputs": [
        {
          "name": "",
          "type": "bytes32"
        }
      ],
      "payable": false,
      "stateMutability": "view",
      "type": "function"
    },
    {
      "constant": false,
      "inputs": [
        {
          "name": "_holder",
          "type": "address"
        }
      ],
      "name": "setHolder",
      "outputs": [],
      "payable": false,
      "stateMutability": "nonpayable",
      "type": "function"
    },
    {
      "constant": true,
      "inputs": [],
      "name": "holder",
      "outputs": [
        {
          "name": "",
          "type": "address"
        }
      ],
      "payable": false,
      "stateMutability": "view",
      "type": "function"
    },
    {
      "inputs": [
        {
          "name": "_issuer",
          "type": "address"
        },
        {
          "name": "_holder",
          "type": "address"
        },
        {
          "name": "_contentHash",
          "type": "bytes32"
        }
      ],
      "payable": false,
      "stateMutability": "nonpayable",
      "type": "constructor"
    },
    {
      "anonymous": false,
      "inputs": [
        {
          "indexed": true,
          "name": "issuer",
          "type": "address"
        },
        {
          "indexed": true,
          "name": "holder",
          "type": "address"
        },
        {
          "indexed": true,
          "name": "instrument",
          "type": "address"
        },
        {
          "indexed": false,
          "name": "contentHash",
          "type": "bytes32"
        }
      ],
      "name": "InstrumentCreated",
      "type": "event"
    }
  ],
  "bytecode": "0x6060604052341561000f57600080fd5b60405160608061045583398101604052808051906020019091908051906020019091908051906020019091905050826000806101000a81548173ffffffffffffffffffffffffffffffffffffffff021916908373ffffffffffffffffffffffffffffffffffffffff16021790555081600160006101000a81548173ffffffffffffffffffffffffffffffffffffffff021916908373ffffffffffffffffffffffffffffffffffffffff160217905550806002816000191690555050505061037a806100db6000396000f30060606040526004361061006d576000357c0100000000000000000000000000000000000000000000000000000000900463ffffffff1680631d1438481461007257806355cc4e57146100c7578063646c2e3314610100578063d979f5aa14610131578063e534155d1461016a575b600080fd5b341561007d57600080fd5b6100856101bf565b604051808273ffffffffffffffffffffffffffffffffffffffff1673ffffffffffffffffffffffffffffffffffffffff16815260200191505060405180910390f35b34156100d257600080fd5b6100fe600480803573ffffffffffffffffffffffffffffffffffffffff169060200190919050506101e4565b005b341561010b57600080fd5b610113610282565b60405180826000191660001916815260200191505060405180910390f35b341561013c57600080fd5b610168600480803573ffffffffffffffffffffffffffffffffffffffff16906020019091905050610288565b005b341561017557600080fd5b61017d610328565b604051808273ffffffffffffffffffffffffffffffffffffffff1673ffffffffffffffffffffffffffffffffffffffff16815260200191505060405180910390f35b6000809054906101000a900473ffffffffffffffffffffffffffffffffffffffff1681565b3373ffffffffffffffffffffffffffffffffffffffff166000809054906101000a900473ffffffffffffffffffffffffffffffffffffffff1673ffffffffffffffffffffffffffffffffffffffff1614151561023f57600080fd5b806000806101000a81548173ffffffffffffffffffffffffffffffffffffffff021916908373ffffffffffffffffffffffffffffffffffffffff16021790555050565b60025481565b3373ffffffffffffffffffffffffffffffffffffffff16600160009054906101000a900473ffffffffffffffffffffffffffffffffffffffff1673ffffffffffffffffffffffffffffffffffffffff161415156102e457600080fd5b80600160006101000a81548173ffffffffffffffffffffffffffffffffffffffff021916908373ffffffffffffffffffffffffffffffffffffffff16021790555050565b600160009054906101000a900473ffffffffffffffffffffffffffffffffffffffff16815600a165627a7a72305820bde91e6354f8884b45618dd9398b3c5ef4400589406e6db1ad8af0cf8a62478d0029",
  "source": "pragma solidity ^0.4.18;\n\ncontract Instrument {\n  address public issuer;\n  address public holder;\n  bytes32 public contentHash;\n\n  event InstrumentCreated(address indexed issuer, address indexed holder, address indexed instrument, bytes32 contentHash);\n\n  modifier onlyHolder {\n    require(holder == msg.sender);\n    _;\n  }\n\n  modifier onlyIssuer {\n    require(issuer == msg.sender);\n    _;\n  }\n\n  function Instrument(address _issuer, address _holder, bytes32 _contentHash) public {\n    issuer = _issuer;\n    holder = _holder;\n    contentHash = _contentHash;\n  }\n\n  function setHolder(address _holder) onlyHolder public {\n    holder = _holder;\n  }\n\n  function setIssuer(address _issuer) onlyIssuer public {\n    issuer = _issuer;\n  }\n}\n",
  "sourcePath": "/Users/ras/src/aikon/protocol/contracts/Instrument.sol",
  "compiler": {
    "name": "solc",
    "version": "0.4.18+commit.9cf6e910.Emscripten.clang"
  },
  "schemaVersion": "1.0.1",
  "updatedAt": "2018-03-16T03:54:08.867Z"
}