{
  "contractName": "InstrumentFactory",
  "abi": [
    {
      "constant": true,
      "inputs": [],
      "name": "issuer",
      "outputs": [
        {
          "name": "",
          "type": "address"
        }
      ],
      "payable": false,
      "stateMutability": "view",
      "type": "function"
    },
    {
      "constant": false,
      "inputs": [],
      "name": "accept",
      "outputs": [],
      "payable": true,
      "stateMutability": "payable",
      "type": "function"
    },
    {
      "constant": false,
      "inputs": [
        {
          "name": "_withdrawAddress",
          "type": "address"
        }
      ],
      "name": "withdraw",
      "outputs": [],
      "payable": false,
      "stateMutability": "nonpayable",
      "type": "function"
    },
    {
      "constant": false,
      "inputs": [
        {
          "name": "_issuer",
          "type": "address"
        }
      ],
      "name": "setIssuer",
      "outputs": [],
      "payable": false,
      "stateMutability": "nonpayable",
      "type": "function"
    },
    {
      "constant": true,
      "inputs": [],
      "name": "amountPaymentRequired",
      "outputs": [
        {
          "name": "",
          "type": "uint256"
        }
      ],
      "payable": false,
      "stateMutability": "view",
      "type": "function"
    },
    {
      "constant": true,
      "inputs": [],
      "name": "contentHash",
      "outputs": [
        {
          "name": "",
          "type": "bytes32"
        }
      ],
      "payable": false,
      "stateMutability": "view",
      "type": "function"
    },
    {
      "constant": true,
      "inputs": [],
      "name": "instrumentContentHash",
      "outputs": [
        {
          "name": "",
          "type": "bytes32"
        }
      ],
      "payable": false,
      "stateMutability": "view",
      "type": "function"
    },
    {
      "constant": false,
      "inputs": [
        {
          "name": "_holder",
          "type": "address"
        }
      ],
      "name": "setHolder",
      "outputs": [],
      "payable": false,
      "stateMutability": "nonpayable",
      "type": "function"
    },
    {
      "constant": true,
      "inputs": [],
      "name": "holder",
      "outputs": [
        {
          "name": "",
          "type": "address"
        }
      ],
      "payable": false,
      "stateMutability": "view",
      "type": "function"
    },
    {
      "inputs": [
        {
          "name": "_issuer",
          "type": "address"
        },
        {
          "name": "_contentHash",
          "type": "bytes32"
        },
        {
          "name": "_instrumentContentHash",
          "type": "bytes32"
        },
        {
          "name": "_amountPaymentRequired",
          "type": "uint256"
        }
      ],
      "payable": false,
      "stateMutability": "nonpayable",
      "type": "constructor"
    },
    {
      "anonymous": false,
      "inputs": [
        {
          "indexed": true,
          "name": "issuer",
          "type": "address"
        },
        {
          "indexed": true,
          "name": "holder",
          "type": "address"
        },
        {
          "indexed": true,
          "name": "instrument",
          "type": "address"
        },
        {
          "indexed": false,
          "name": "contentHash",
          "type": "bytes32"
        }
      ],
      "name": "InstrumentCreated",
      "type": "event"
    }
  ],
  "bytecode": "0x6060604052341561000f57600080fd5b604051608080610be083398101604052808051906020019091908051906020019091908051906020019091908051906020019091905050838484826000806101000a81548173ffffffffffffffffffffffffffffffffffffffff021916908373ffffffffffffffffffffffffffffffffffffffff16021790555081600160006101000a81548173ffffffffffffffffffffffffffffffffffffffff021916908373ffffffffffffffffffffffffffffffffffffffff160217905550806002816000191690555050505080600381905550816004816000191690555050505050610ae3806100fd6000396000f300606060405260043610610099576000357c0100000000000000000000000000000000000000000000000000000000900463ffffffff1680631d1438481461009e5780632852b71c146100f357806351cff8d9146100fd57806355cc4e57146101365780635bd116771461016f578063646c2e33146101985780638d457771146101c9578063d979f5aa146101fa578063e534155d14610233575b600080fd5b34156100a957600080fd5b6100b1610288565b604051808273ffffffffffffffffffffffffffffffffffffffff1673ffffffffffffffffffffffffffffffffffffffff16815260200191505060405180910390f35b6100fb6102ad565b005b341561010857600080fd5b610134600480803573ffffffffffffffffffffffffffffffffffffffff16906020019091905050610427565b005b341561014157600080fd5b61016d600480803573ffffffffffffffffffffffffffffffffffffffff169060200190919050506104dc565b005b341561017a57600080fd5b61018261057a565b6040518082815260200191505060405180910390f35b34156101a357600080fd5b6101ab610580565b60405180826000191660001916815260200191505060405180910390f35b34156101d457600080fd5b6101dc610586565b60405180826000191660001916815260200191505060405180910390f35b341561020557600080fd5b610231600480803573ffffffffffffffffffffffffffffffffffffffff1690602001909190505061058c565b005b341561023e57600080fd5b61024661062c565b604051808273ffffffffffffffffffffffffffffffffffffffff1673ffffffffffffffffffffffffffffffffffffffff16815260200191505060405180910390f35b6000809054906101000a900473ffffffffffffffffffffffffffffffffffffffff1681565b6000600354341415156102bf57600080fd5b6000809054906101000a900473ffffffffffffffffffffffffffffffffffffffff16336004546102ed610652565b808473ffffffffffffffffffffffffffffffffffffffff1673ffffffffffffffffffffffffffffffffffffffff1681526020018373ffffffffffffffffffffffffffffffffffffffff1673ffffffffffffffffffffffffffffffffffffffff16815260200182600019166000191681526020019350505050604051809103906000f080151561037b57600080fd5b90508073ffffffffffffffffffffffffffffffffffffffff163373ffffffffffffffffffffffffffffffffffffffff166000809054906101000a900473ffffffffffffffffffffffffffffffffffffffff1673ffffffffffffffffffffffffffffffffffffffff167f6fda10d37695937bde3fd472914ad3042c6259b57f8edbdb6047e4fce887194b60045460405180826000191660001916815260200191505060405180910390a450565b3373ffffffffffffffffffffffffffffffffffffffff166000809054906101000a900473ffffffffffffffffffffffffffffffffffffffff1673ffffffffffffffffffffffffffffffffffffffff1614151561048257600080fd5b8073ffffffffffffffffffffffffffffffffffffffff166108fc3073ffffffffffffffffffffffffffffffffffffffff16319081150290604051600060405180830381858888f1935050505015156104d957600080fd5b50565b3373ffffffffffffffffffffffffffffffffffffffff166000809054906101000a900473ffffffffffffffffffffffffffffffffffffffff1673ffffffffffffffffffffffffffffffffffffffff1614151561053757600080fd5b806000806101000a81548173ffffffffffffffffffffffffffffffffffffffff021916908373ffffffffffffffffffffffffffffffffffffffff16021790555050565b60035481565b60025481565b60045481565b3373ffffffffffffffffffffffffffffffffffffffff16600160009054906101000a900473ffffffffffffffffffffffffffffffffffffffff1673ffffffffffffffffffffffffffffffffffffffff161415156105e857600080fd5b80600160006101000a81548173ffffffffffffffffffffffffffffffffffffffff021916908373ffffffffffffffffffffffffffffffffffffffff16021790555050565b600160009054906101000a900473ffffffffffffffffffffffffffffffffffffffff1681565b604051610455806106638339019056006060604052341561000f57600080fd5b60405160608061045583398101604052808051906020019091908051906020019091908051906020019091905050826000806101000a81548173ffffffffffffffffffffffffffffffffffffffff021916908373ffffffffffffffffffffffffffffffffffffffff16021790555081600160006101000a81548173ffffffffffffffffffffffffffffffffffffffff021916908373ffffffffffffffffffffffffffffffffffffffff160217905550806002816000191690555050505061037a806100db6000396000f30060606040526004361061006d576000357c0100000000000000000000000000000000000000000000000000000000900463ffffffff1680631d1438481461007257806355cc4e57146100c7578063646c2e3314610100578063d979f5aa14610131578063e534155d1461016a575b600080fd5b341561007d57600080fd5b6100856101bf565b604051808273ffffffffffffffffffffffffffffffffffffffff1673ffffffffffffffffffffffffffffffffffffffff16815260200191505060405180910390f35b34156100d257600080fd5b6100fe600480803573ffffffffffffffffffffffffffffffffffffffff169060200190919050506101e4565b005b341561010b57600080fd5b610113610282565b60405180826000191660001916815260200191505060405180910390f35b341561013c57600080fd5b610168600480803573ffffffffffffffffffffffffffffffffffffffff16906020019091905050610288565b005b341561017557600080fd5b61017d610328565b604051808273ffffffffffffffffffffffffffffffffffffffff1673ffffffffffffffffffffffffffffffffffffffff16815260200191505060405180910390f35b6000809054906101000a900473ffffffffffffffffffffffffffffffffffffffff1681565b3373ffffffffffffffffffffffffffffffffffffffff166000809054906101000a900473ffffffffffffffffffffffffffffffffffffffff1673ffffffffffffffffffffffffffffffffffffffff1614151561023f57600080fd5b806000806101000a81548173ffffffffffffffffffffffffffffffffffffffff021916908373ffffffffffffffffffffffffffffffffffffffff16021790555050565b60025481565b3373ffffffffffffffffffffffffffffffffffffffff16600160009054906101000a900473ffffffffffffffffffffffffffffffffffffffff1673ffffffffffffffffffffffffffffffffffffffff161415156102e457600080fd5b80600160006101000a81548173ffffffffffffffffffffffffffffffffffffffff021916908373ffffffffffffffffffffffffffffffffffffffff16021790555050565b600160009054906101000a900473ffffffffffffffffffffffffffffffffffffffff16815600a165627a7a72305820bde91e6354f8884b45618dd9398b3c5ef4400589406e6db1ad8af0cf8a62478d0029a165627a7a723058202f09ff7177d4dd72dea7d11d19f69f7bfa4e643c6798092dfeb4efd1c7f5a6550029",
  "source": "pragma solidity ^0.4.18;\n\nimport { Instrument } from './Instrument.sol';\n\ncontract InstrumentFactory is Instrument {\n  uint256 public amountPaymentRequired; // amount in wei\n  bytes32 public instrumentContentHash;\n\n  function InstrumentFactory(address _issuer, bytes32 _contentHash, bytes32 _instrumentContentHash, uint256 _amountPaymentRequired) Instrument(_issuer, _issuer,  _contentHash) public {\n    amountPaymentRequired = _amountPaymentRequired;\n    instrumentContentHash = _instrumentContentHash;\n  }\n\n  function withdraw(address _withdrawAddress) onlyIssuer public {\n    _withdrawAddress.transfer(this.balance);\n  }\n\n  function accept() public payable {\n    require(msg.value == amountPaymentRequired);\n\n    address instrument = new Instrument(issuer, msg.sender, instrumentContentHash);\n    InstrumentCreated(issuer, msg.sender, instrument, instrumentContentHash);\n  }\n}\n",
  "sourcePath": "/Users/ras/src/aikon/protocol/contracts/InstrumentFactory.sol",
  "compiler": {
    "name": "solc",
    "version": "0.4.18+commit.9cf6e910.Emscripten.clang"
  },
  "schemaVersion": "1.0.1",
  "updatedAt": "2018-03-16T03:54:08.867Z"
}