{
  "contractName": "Unidirectional",
  "abi": [
    {
      "constant": true,
      "inputs": [
        {
          "name": "channelId",
          "type": "bytes32"
        }
      ],
      "name": "isPresent",
      "outputs": [
        {
          "name": "",
          "type": "bool"
        }
      ],
      "payable": false,
      "stateMutability": "view",
      "type": "function"
    },
    {
      "constant": true,
      "inputs": [
        {
          "name": "channelId",
          "type": "bytes32"
        },
        {
          "name": "origin",
          "type": "address"
        }
      ],
      "name": "canDeposit",
      "outputs": [
        {
          "name": "",
          "type": "bool"
        }
      ],
      "payable": false,
      "stateMutability": "view",
      "type": "function"
    },
    {
      "constant": true,
      "inputs": [
        {
          "name": "channelId",
          "type": "bytes32"
        },
        {
          "name": "payment",
          "type": "uint256"
        }
      ],
      "name": "paymentDigest",
      "outputs": [
        {
          "name": "",
          "type": "bytes32"
        }
      ],
      "payable": false,
      "stateMutability": "view",
      "type": "function"
    },
    {
      "constant": true,
      "inputs": [
        {
          "name": "channelId",
          "type": "bytes32"
        },
        {
          "name": "origin",
          "type": "address"
        }
      ],
      "name": "canStartSettling",
      "outputs": [
        {
          "name": "",
          "type": "bool"
        }
      ],
      "payable": false,
      "stateMutability": "view",
      "type": "function"
    },
    {
      "constant": true,
      "inputs": [
        {
          "name": "channelId",
          "type": "bytes32"
        }
      ],
      "name": "isAbsent",
      "outputs": [
        {
          "name": "",
          "type": "bool"
        }
      ],
      "payable": false,
      "stateMutability": "view",
      "type": "function"
    },
    {
      "constant": false,
      "inputs": [
        {
          "name": "channelId",
          "type": "bytes32"
        },
        {
          "name": "payment",
          "type": "uint256"
        },
        {
          "name": "signature",
          "type": "bytes"
        },
        {
          "name": "provider",
          "type": "address"
        }
      ],
      "name": "claim",
      "outputs": [],
      "payable": false,
      "stateMutability": "nonpayable",
      "type": "function"
    },
    {
      "constant": true,
      "inputs": [
        {
          "name": "channelId",
          "type": "bytes32"
        }
      ],
      "name": "isSettling",
      "outputs": [
        {
          "name": "",
          "type": "bool"
        }
      ],
      "payable": false,
      "stateMutability": "view",
      "type": "function"
    },
    {
      "constant": true,
      "inputs": [
        {
          "name": "",
          "type": "bytes32"
        }
      ],
      "name": "channels",
      "outputs": [
        {
          "name": "sender",
          "type": "address"
        },
        {
          "name": "receiver",
          "type": "address"
        },
        {
          "name": "value",
          "type": "uint256"
        },
        {
          "name": "settlingPeriod",
          "type": "uint32"
        },
        {
          "name": "settlingUntil",
          "type": "uint256"
        }
      ],
      "payable": false,
      "stateMutability": "view",
      "type": "function"
    },
    {
      "constant": true,
      "inputs": [
        {
          "name": "channelId",
          "type": "bytes32"
        }
      ],
      "name": "isOpen",
      "outputs": [
        {
          "name": "",
          "type": "bool"
        }
      ],
      "payable": false,
      "stateMutability": "view",
      "type": "function"
    },
    {
      "constant": false,
      "inputs": [
        {
          "name": "channelId",
          "type": "bytes32"
        }
      ],
      "name": "settle",
      "outputs": [],
      "payable": false,
      "stateMutability": "nonpayable",
      "type": "function"
    },
    {
      "constant": true,
      "inputs": [
        {
          "name": "channelId",
          "type": "bytes32"
        }
      ],
      "name": "canSettle",
      "outputs": [
        {
          "name": "",
          "type": "bool"
        }
      ],
      "payable": false,
      "stateMutability": "view",
      "type": "function"
    },
    {
      "constant": false,
      "inputs": [
        {
          "name": "channelId",
          "type": "bytes32"
        }
      ],
      "name": "deposit",
      "outputs": [],
      "payable": true,
      "stateMutability": "payable",
      "type": "function"
    },
    {
      "constant": false,
      "inputs": [
        {
          "name": "channelId",
          "type": "bytes32"
        },
        {
          "name": "receiver",
          "type": "address"
        },
        {
          "name": "settlingPeriod",
          "type": "uint32"
        }
      ],
      "name": "open",
      "outputs": [],
      "payable": true,
      "stateMutability": "payable",
      "type": "function"
    },
    {
      "constant": false,
      "inputs": [
        {
          "name": "channelId",
          "type": "bytes32"
        }
      ],
      "name": "startSettling",
      "outputs": [],
      "payable": false,
      "stateMutability": "nonpayable",
      "type": "function"
    },
    {
      "constant": true,
      "inputs": [
        {
          "name": "channelId",
          "type": "bytes32"
        },
        {
          "name": "payment",
          "type": "uint256"
        },
        {
          "name": "origin",
          "type": "address"
        },
        {
          "name": "signature",
          "type": "bytes"
        }
      ],
      "name": "canClaim",
      "outputs": [
        {
          "name": "",
          "type": "bool"
        }
      ],
      "payable": false,
      "stateMutability": "view",
      "type": "function"
    },
    {
      "anonymous": false,
      "inputs": [
        {
          "indexed": true,
          "name": "channelId",
          "type": "bytes32"
        },
        {
          "indexed": true,
          "name": "sender",
          "type": "address"
        },
        {
          "indexed": true,
          "name": "receiver",
          "type": "address"
        },
        {
          "indexed": false,
          "name": "value",
          "type": "uint256"
        }
      ],
      "name": "DidOpen",
      "type": "event"
    },
    {
      "anonymous": false,
      "inputs": [
        {
          "indexed": true,
          "name": "channelId",
          "type": "bytes32"
        },
        {
          "indexed": false,
          "name": "deposit",
          "type": "uint256"
        }
      ],
      "name": "DidDeposit",
      "type": "event"
    },
    {
      "anonymous": false,
      "inputs": [
        {
          "indexed": true,
          "name": "channelId",
          "type": "bytes32"
        }
      ],
      "name": "DidClaim",
      "type": "event"
    },
    {
      "anonymous": false,
      "inputs": [
        {
          "indexed": true,
          "name": "channelId",
          "type": "bytes32"
        }
      ],
      "name": "DidStartSettling",
      "type": "event"
    },
    {
      "anonymous": false,
      "inputs": [
        {
          "indexed": true,
          "name": "channelId",
          "type": "bytes32"
        }
      ],
      "name": "DidSettle",
      "type": "event"
    }
  ],
  "bytecode": "0x6060604052341561000f57600080fd5b61123c8061001e6000396000f3006060604052600436106100da576000357c0100000000000000000000000000000000000000000000000000000000900463ffffffff168062f31e76146100df5780632f8f0c921461011e57806341b6fcf71461017c5780634722361c146101c857806360546602146102265780636618d17b146102655780636683f9ae146102f75780637a7ebd7b146103365780637c35be7a146103f1578063987757dd14610430578063ad37908914610457578063b214faa514610496578063ba6cc6c3146104b2578063e62eea47146104fc578063ec8be5b914610523575b600080fd5b34156100ea57600080fd5b6101046004808035600019169060200190919050506105cd565b604051808215151515815260200191505060405180910390f35b341561012957600080fd5b61016260048080356000191690602001909190803573ffffffffffffffffffffffffffffffffffffffff169060200190919050506105e0565b604051808215151515815260200191505060405180910390f35b341561018757600080fd5b6101aa600480803560001916906020019091908035906020019091905050610672565b60405180826000191660001916815260200191505060405180910390f35b34156101d357600080fd5b61020c60048080356000191690602001909190803573ffffffffffffffffffffffffffffffffffffffff169060200190919050506106e5565b604051808215151515815260200191505060405180910390f35b341561023157600080fd5b61024b600480803560001916906020019091905050610777565b604051808215151515815260200191505060405180910390f35b341561027057600080fd5b6102f560048080356000191690602001909190803590602001909190803590602001908201803590602001908080601f0160208091040260200160405190810160405280939291908181526020018383808284378201915050505050509190803573ffffffffffffffffffffffffffffffffffffffff169060200190919050506107dc565b005b341561030257600080fd5b61031c6004808035600019169060200190919050506109ec565b604051808215151515815260200191505060405180910390f35b341561034157600080fd5b61035b6004808035600019169060200190919050506109f6565b604051808673ffffffffffffffffffffffffffffffffffffffff1673ffffffffffffffffffffffffffffffffffffffff1681526020018573ffffffffffffffffffffffffffffffffffffffff1673ffffffffffffffffffffffffffffffffffffffff1681526020018481526020018363ffffffff1663ffffffff1681526020018281526020019550505050505060405180910390f35b34156103fc57600080fd5b610416600480803560001916906020019091905050610a7c565b604051808215151515815260200191505060405180910390f35b341561043b57600080fd5b610455600480803560001916906020019091905050610aa0565b005b341561046257600080fd5b61047c600480803560001916906020019091905050610c01565b604051808215151515815260200191505060405180910390f35b6104b0600480803560001916906020019091905050610c58565b005b6104fa60048080356000191690602001909190803573ffffffffffffffffffffffffffffffffffffffff1690602001909190803563ffffffff16906020019091905050610cd7565b005b341561050757600080fd5b610521600480803560001916906020019091905050610e9b565b005b341561052e57600080fd5b6105b360048080356000191690602001909190803590602001909190803573ffffffffffffffffffffffffffffffffffffffff1690602001909190803590602001908201803590602001908080601f01602080910402602001604051908101604052809392919081815260200183838082843782019150505050505091905050610f28565b604051808215151515815260200191505060405180910390f35b60006105d882610777565b159050919050565b6000806000806000866000191660001916815260200190815260200160002091508373ffffffffffffffffffffffffffffffffffffffff168260000160009054906101000a900473ffffffffffffffffffffffffffffffffffffffff1673ffffffffffffffffffffffffffffffffffffffff1614905061065f85610a7c565b80156106685750805b9250505092915050565b6000308383604051808473ffffffffffffffffffffffffffffffffffffffff1673ffffffffffffffffffffffffffffffffffffffff166c01000000000000000000000000028152601401836000191660001916815260200182815260200193505050506040518091039020905092915050565b6000806000806000866000191660001916815260200190815260200160002091508373ffffffffffffffffffffffffffffffffffffffff168260000160009054906101000a900473ffffffffffffffffffffffffffffffffffffffff1673ffffffffffffffffffffffffffffffffffffffff1614905061076485610a7c565b801561076d5750805b9250505092915050565b6000806000808460001916600019168152602001908152602001600020905060008160000160009054906101000a900473ffffffffffffffffffffffffffffffffffffffff1673ffffffffffffffffffffffffffffffffffffffff1614915050919050565b60006107ea85853386610f28565b15156107f557600080fd5b60008086600019166000191681526020019081526020016000209050806002015484101515610867578173ffffffffffffffffffffffffffffffffffffffff166108fc82600201549081150290604051600060405180830381858888f19350505050151561086257600080fd5b610922565b8173ffffffffffffffffffffffffffffffffffffffff166108fc859081150290604051600060405180830381858888f1935050505015156108a757600080fd5b8060000160009054906101000a900473ffffffffffffffffffffffffffffffffffffffff1673ffffffffffffffffffffffffffffffffffffffff166108fc6108fc86846002015461111c90919063ffffffff16565b9081150290604051600060405180830381858888f19350505050151561092157600080fd5b5b6000808660001916600019168152602001908152602001600020600080820160006101000a81549073ffffffffffffffffffffffffffffffffffffffff02191690556001820160006101000a81549073ffffffffffffffffffffffffffffffffffffffff021916905560028201600090556003820160006101000a81549063ffffffff02191690556004820160009055505084600019167f3de43c9e481138453c3cfea2781e18a609abb6448556669b257edc7de710fd6460405160405180910390a25050505050565b6000809050919050565b60006020528060005260406000206000915090508060000160009054906101000a900473ffffffffffffffffffffffffffffffffffffffff16908060010160009054906101000a900473ffffffffffffffffffffffffffffffffffffffff16908060020154908060030160009054906101000a900463ffffffff16908060040154905085565b6000610a87826105cd565b8015610a995750610a97826109ec565b155b9050919050565b6000610aab82610c01565b1515610ab657600080fd5b600080836000191660001916815260200190815260200160002090508060000160009054906101000a900473ffffffffffffffffffffffffffffffffffffffff1673ffffffffffffffffffffffffffffffffffffffff166108fc82600201549081150290604051600060405180830381858888f193505050501515610b3a57600080fd5b6000808360001916600019168152602001908152602001600020600080820160006101000a81549073ffffffffffffffffffffffffffffffffffffffff02191690556001820160006101000a81549073ffffffffffffffffffffffffffffffffffffffff021916905560028201600090556003820160006101000a81549063ffffffff02191690556004820160009055505081600019167f74fb75c3de2cff5e8a78cf9b1f49a5bea60126b42ed45bb4b2b25b7da03e4d1b60405160405180910390a25050565b600080600080600085600019166000191681526020019081526020016000209150610c2b846109ec565b8015610c3b575081600401544310155b9050610c46846109ec565b8015610c4f5750805b92505050919050565b610c6281336105e0565b1515610c6d57600080fd5b3460008083600019166000191681526020019081526020016000206002016000828254019250508190555080600019167f6f850cda6d6b2f5cca622bc2d4739e4ed917c12d29f9a92b9e6c127abe398424346040518082815260200191505060405180910390a250565b610ce083610777565b1515610ceb57600080fd5b60a0604051908101604052803373ffffffffffffffffffffffffffffffffffffffff1681526020018373ffffffffffffffffffffffffffffffffffffffff1681526020013481526020018263ffffffff1681526020016000815250600080856000191660001916815260200190815260200160002060008201518160000160006101000a81548173ffffffffffffffffffffffffffffffffffffffff021916908373ffffffffffffffffffffffffffffffffffffffff16021790555060208201518160010160006101000a81548173ffffffffffffffffffffffffffffffffffffffff021916908373ffffffffffffffffffffffffffffffffffffffff1602179055506040820151816002015560608201518160030160006101000a81548163ffffffff021916908363ffffffff160217905550608082015181600401559050508173ffffffffffffffffffffffffffffffffffffffff163373ffffffffffffffffffffffffffffffffffffffff1684600019167f2f7cfc632227c054da7caaf75268353dba6206f53e9f7a547a193e66ab8c94dc346040518082815260200191505060405180910390a4505050565b6000610ea782336106e5565b1515610eb257600080fd5b600080836000191660001916815260200190815260200160002090508060030160009054906101000a900463ffffffff1663ffffffff164301816004018190555081600019167fd6461a3a92fd600fe23f236b2e25c2fd0c197a66b2f990989f0b210d578f461760405160405180910390a25050565b60008060008060008060008a6000191660001916815260200190815260200160002093508360010160009054906101000a900473ffffffffffffffffffffffffffffffffffffffff1673ffffffffffffffffffffffffffffffffffffffff168773ffffffffffffffffffffffffffffffffffffffff16149250610fab8989611135565b915073__ECRecovery____________________________6319045a2583886000604051602001526040518363ffffffff167c010000000000000000000000000000000000000000000000000000000002815260040180836000191660001916815260200180602001828103825283818151815260200191508051906020019080838360005b8381101561104b578082015181840152602081019050611030565b50505050905090810190601f1680156110785780820380516001836020036101000a031916815260200191505b50935050505060206040518083038186803b151561109557600080fd5b6102c65a03f415156110a657600080fd5b5050506040518051905073ffffffffffffffffffffffffffffffffffffffff168460000160009054906101000a900473ffffffffffffffffffffffffffffffffffffffff1673ffffffffffffffffffffffffffffffffffffffff1614905082801561110e5750805b945050505050949350505050565b600082821115151561112a57fe5b818303905092915050565b600061113f6111fc565b6040805190810160405280601c81526020017f19457468657265756d205369676e6564204d6573736167653a0a3332000000008152509050806111828585610672565b6040518083805190602001908083835b6020831015156111b75780518252602082019150602081019050602083039250611192565b6001836020036101000a038019825116818451168082178552505050505050905001826000191660001916815260200192505050604051809103902091505092915050565b6020604051908101604052806000815250905600a165627a7a72305820f2b91b78a105c986b94b954e1ce4101484f5a88c980212d05729aaa62e52f75e0029",
  "source": "pragma solidity 0.4.18;\n\nimport \"zeppelin-solidity/contracts/math/SafeMath.sol\";\nimport \"zeppelin-solidity/contracts/ECRecovery.sol\";\n\n\n/// @title Unidirectional Ether payment channels contract.\ncontract Unidirectional {\n    using SafeMath for uint256;\n\n    struct PaymentChannel {\n        address sender;\n        address receiver;\n        uint256 value; // Total amount of money deposited to the channel.\n\n        uint32 settlingPeriod; // How many blocks to wait for the receiver to claim her funds, after sender starts settling.\n        uint256 settlingUntil; // Starting with this block number, anyone can settle the channel.\n    }\n\n    mapping (bytes32 => PaymentChannel) public channels;\n\n    event DidOpen(bytes32 indexed channelId, address indexed sender, address indexed receiver, uint256 value);\n    event DidDeposit(bytes32 indexed channelId, uint256 deposit);\n    event DidClaim(bytes32 indexed channelId);\n    event DidStartSettling(bytes32 indexed channelId);\n    event DidSettle(bytes32 indexed channelId);\n\n    /*** ACTIONS AND CONSTRAINTS ***/\n\n    /// @notice Open a new channel between `msg.sender` and `receiver`, and do an initial deposit to the channel.\n    /// @param channelId Unique identifier of the channel to be created.\n    /// @param receiver Receiver of the funds, counter-party of `msg.sender`.\n    /// @param settlingPeriod Number of blocks to wait for receiver to `claim` her funds after the sender starts settling period (see `startSettling`).\n    /// After that period is over anyone could call `settle`, and move all the channel funds to the sender.\n    function open(bytes32 channelId, address receiver, uint32 settlingPeriod) public payable {\n        require(isAbsent(channelId));\n\n        channels[channelId] = PaymentChannel({\n            sender: msg.sender,\n            receiver: receiver,\n            value: msg.value,\n            settlingPeriod: settlingPeriod,\n            settlingUntil: 0\n        });\n\n        DidOpen(channelId, msg.sender, receiver, msg.value);\n    }\n\n    /// @notice Ensure `origin` address can deposit money into the channel identified by `channelId`.\n    /// @dev Constraint `deposit` call.\n    /// @param channelId Identifier of the channel.\n    /// @param origin Caller of `deposit` function.\n    function canDeposit(bytes32 channelId, address origin) public view returns(bool) {\n        var channel = channels[channelId];\n        bool isSender = channel.sender == origin;\n        return isOpen(channelId) && isSender;\n    }\n\n    /// @notice Add more money to the contract.\n    /// @param channelId Identifier of the channel.\n    function deposit(bytes32 channelId) public payable {\n        require(canDeposit(channelId, msg.sender));\n\n        channels[channelId].value += msg.value;\n\n        DidDeposit(channelId, msg.value);\n    }\n\n    /// @notice Ensure `origin` address can start settling the channel identified by `channelId`.\n    /// @dev Constraint `startSettling` call.\n    /// @param channelId Identifier of the channel.\n    /// @param origin Caller of `startSettling` function.\n    function canStartSettling(bytes32 channelId, address origin) public view returns(bool) {\n        var channel = channels[channelId];\n        bool isSender = channel.sender == origin;\n        return isOpen(channelId) && isSender;\n    }\n\n    /// @notice Sender initiates settling of the contract.\n    /// @dev Actually set `settlingUntil` field of the PaymentChannel structure.\n    /// @param channelId Identifier of the channel.\n    function startSettling(bytes32 channelId) public {\n        require(canStartSettling(channelId, msg.sender));\n\n        var channel = channels[channelId];\n        channel.settlingUntil = block.number + channel.settlingPeriod;\n\n        DidStartSettling(channelId);\n    }\n\n    /// @notice Ensure one can settle the channel identified by `channelId`.\n    /// @dev Check if settling period is over by comparing `settlingUntil` to a current block number.\n    /// @param channelId Identifier of the channel.\n    function canSettle(bytes32 channelId) public view returns(bool) {\n        var channel = channels[channelId];\n        bool isWaitingOver = isSettling(channelId) && block.number >= channel.settlingUntil;\n        return isSettling(channelId) && isWaitingOver;\n    }\n\n    /// @notice Move the money to sender, and close the channel.\n    /// After the settling period is over, and receiver has not claimed the funds, anyone could call that.\n    /// @param channelId Identifier of the channel.\n    function settle(bytes32 channelId) public {\n        require(canSettle(channelId));\n        var channel = channels[channelId];\n        require(channel.sender.send(channel.value));\n\n        delete channels[channelId];\n        DidSettle(channelId);\n    }\n\n    /// @notice Ensure `origin` address can claim `payment` amount on channel identified by `channelId`.\n    /// @dev Check if `signature` is made by sender part of the channel, and is for payment promise (see `paymentDigest`).\n    /// @param channelId Identifier of the channel.\n    /// @param payment Amount claimed.\n    /// @param origin Caller of `claim` function.\n    /// @param signature Signature for the payment promise.\n    function canClaim(bytes32 channelId, uint256 payment, address origin, bytes signature) public view returns(bool) {\n        var channel = channels[channelId];\n        bool isReceiver = origin == channel.receiver;\n        var hash = recoveryPaymentDigest(channelId, payment);\n        bool isSigned = channel.sender == ECRecovery.recover(hash, signature);\n\n        return isReceiver && isSigned;\n    }\n\n    /// @notice Claim the funds, and close the channel.\n    /// @dev Can be claimed by channel receiver only. Guarded by `canClaim`.\n    /// @param channelId Identifier of the channel.\n    /// @param payment Amount claimed.\n    /// @param signature Signature for the payment promise.\n    function claim(bytes32 channelId, uint256 payment, bytes signature, address provider) public {\n        require(canClaim(channelId, payment, msg.sender, signature));\n\n        var channel = channels[channelId];\n\n        if (payment >= channel.value) {\n            require(provider.send(channel.value));\n        } else {\n            require(provider.send(payment));\n            require(channel.sender.send(channel.value.sub(payment)));\n        }\n\n        delete channels[channelId];\n\n        DidClaim(channelId);\n    }\n\n    /*** CHANNEL STATE ***/\n\n    /// @notice Check if the channel is present: in open or settling state.\n    /// @param channelId Identifier of the channel.\n    function isPresent(bytes32 channelId) public view returns(bool) {\n        return !isAbsent(channelId);\n    }\n\n    /// @notice Check if the channel is not present.\n    /// @param channelId Identifier of the channel.\n    function isAbsent(bytes32 channelId) public view returns(bool) {\n        var channel = channels[channelId];\n        return channel.sender == 0;\n    }\n\n    /// @notice Check if the channel is in settling state: waits till the settling period is over.\n    /// @dev It is settling, if `settlingUntil` is set to non-zero.\n    /// @param channelId Identifier of the channel.\n    function isSettling(bytes32 channelId) public view returns(bool) {\n       // var channel = channels[channelId];\n        return false;\n    }\n\n    /// @notice Check if the channel is open: present and not settling.\n    /// @param channelId Identifier of the channel.\n    function isOpen(bytes32 channelId) public view returns(bool) {\n        return isPresent(channelId) && !isSettling(channelId);\n    }\n\n    /*** PAYMENT DIGEST ***/\n\n    /// @return Hash of the payment promise to sign.\n    /// @param channelId Identifier of the channel.\n    /// @param payment Amount to send, and to claim later.\n    function paymentDigest(bytes32 channelId, uint256 payment) public view returns(bytes32) {\n        return keccak256(address(this), channelId, payment);\n    }\n\n    /// @return Actually signed hash of the payment promise, considering \"Ethereum Signed Message\" prefix.\n    /// @param channelId Identifier of the channel.\n    /// @param payment Amount to send, and to claim later.\n    function recoveryPaymentDigest(bytes32 channelId, uint256 payment) internal view returns(bytes32) {\n        bytes memory prefix = \"\\x19Ethereum Signed Message:\\n32\";\n        return keccak256(prefix, paymentDigest(channelId, payment));\n    }\n}\n",
  "sourcePath": "/Users/ras/src/aikon/protocol/contracts/Unidirectional.sol",
  "compiler": {
    "name": "solc",
    "version": "0.4.18+commit.9cf6e910.Emscripten.clang"
  },
  "schemaVersion": "1.0.1",
  "updatedAt": "2018-03-16T03:54:08.869Z"
}